:100000000C9467020C94AB020C94C6020C94AB02E5
:100010000C94AB020C94AB020C94AB020C94AB02AC
:100020000C94AB020C94AB020C9439110C94AB02FF
:100030000C94AB020C94AB020C94AB020C94AB028C
:100040000C94AB020C94AB020C94AB020C94AB027C
:100050000C94AB0200010101010101010101020246
:100060000202020202020203030303030303030466
:100070000404040404040505050505060606060631
:10008000070707070708080808090909090A0A0AEB
:100090000B0B0B0C0C0C0D0D0D0E0E0E0F0F0F108D
:1000A0001011111112121313141415151616171717
:1000B000181819191A1A1B1B1C1D1D1E1E1F202083
:1000C000212222232424252626272829292A2B2CCD
:1000D0002D2D2E2F30313232333435363738393AF0
:1000E0003B3C3D3E3F404142434445464748494AE8
:1000F0004C4D4E4F50515354555658595A5B5D5EB6
:100100005F616264656668696B6C6D6F7072737550
:1001100077787A7B7D7E8082838587888A8C8E8FB4
:1001200091939596989A9C9EA0A2A3A5A7A9ABADE2
:10013000AFB1B3B5B7BABCBEC0C2C4C6C9CBCDCFD0
:10014000D1D4D6D8DBDDDFE2E4E7E9EBEEF0F3F57E
:10015000F8FAFDFFFFAA7F55402223252628292AE9
:100160002C2D2F3032333536383A3B3D3E4042431A
:100170004547494A4C4E5051535557595A5C5E6059
:1001800062646668696B6D6F71737577797B7D7F6B
:1001900081838587898A8C8E90929496989A9C9E6A
:1001A0009FA1A3A5A7A8AAACAEAFB1B3B4B6B8B986
:1001B000BBBCBEBFC1C2C3C5C6C7C9CACBCCCDCEEE
:1001C000D0D1D2D2D3D4D5D6D7D7D8D9D9DADADBD1
:1001D000DBDBDCDCDCDCDCDDDDDDDDDCDCDCDCDC5D
:1001E000DBDBDBDADAD9D9D8D7D7D6D5D4D3D2D29C
:1001F000D1D0CECDCCCBCAC9C7C6C5C3C2C1BFBE84
:10020000BCBBB9B8B6B4B3B1AFAEACAAA8A7A5A3EE
:10021000A19F9E9C9A98969492908E8C8A898785AD
:1002200083817F7D7B79777573716F6D6B6968668C
:100230006462605E5C5A5957555351504E4C4A495E
:1002400047454342403E3D3B3A3836353332302F06
:100250002D2C2A2928262523225F00600061005CBE
:10026000005D415E0059005A005B00C45CC95CC37C
:100270005CC55C005CC75CC65CCA5CC85C01000114
:100280000001000100010001000100010001000166
:100290000001000100010001000100010001000156
:1002A000000000000000000000000000000000004E
:1002B000000000000000000000000000000000003E
:1002C00000000000007E0F00D4FFFFFFC700000009
:1002D0007800000000000000002A2B280000000029
:1002E00000000000000000000000000029000000E5
:1002F000002C1E3420212224342627252E362D378B
:1003000038271E1F202122232425263333362E375B
:10031000381F0405060708090A0B0C0D0E0F1011F3
:1003200012131415161718191A1B1C1D2F31302300
:100330002D350405060708090A0B0C0D0E0F1011C8
:1003400012131415161718191A1B1C1D2F313035CE
:100350004C1E0F0500047F3F1F6432146432147872
:100360003C1E1E140A0505010902A10185020901AE
:10037000A100050919012908150025019508750135
:1003800081020501093009311581257F9502750823
:10039000810609381581257F950175088106050CB0
:1003A0000A38021581257F950175088106C0C005B0
:1003B000010980A101850319012AB700150126B79B
:1003C00000950175108100C0050C0901A10185048B
:1003D00019012AA002150126A002950175108100BD
:1003E000C00660FF0961A1010962150026FF0095A2
:1003F00020750881020963150026FF009520750805
:100400009102C005010906A101050719E029E715B8
:100410000025019508750181029501750881030584
:1004200007190029FF150026FF00950675088100B1
:1004300005081901290595057501910295017503B6
:100440009103C00C0359004D0044003000390000F6
:10045000000A0359004D0044004B0000000403094A
:100460000409025B00030100A0FA09040000010373
:10047000010100092101010001224000070581035B
:100480000800010904010002030000000921010124
:100490000001222200070584030800010705040368
:1004A0000800010904020001030000000921010104
:1004B0000001227B000705830308000112011001DF
:1004C000000000084D5909440100010200011124F7
:1004D0001FBECFE5D8E0DEBFCDBF04B603FE24C00B
:1004E0008091C4029091C502A091C602B091C7024A
:1004F0008730904BA740B04BB9F41092C4021092D1
:10050000C5021092C6021092C70214BE84B7877F3C
:1005100084BF0FB6F894A89581B5886181BD11BCE0
:100520000FBEE0E0F8E3099522E0A0EEB0E001C0E4
:100530001D92A43CB207E1F710E0A0E6B0E0E4E6CB
:10054000FBE402C005900D92A03EB107D9F70E94CE
:10055000CE1D0C946F250C940000A82FB92F80E0BD
:1005600090E041E050EA609530E009C02D9182278B
:100570009795879510F084279527305EC8F36F5FB5
:10058000A8F30895EADF8D939D930895CF93CFB795
:10059000CF93C395839BE9F7839B0EC0839B0CC0CD
:1005A000839B0AC0839B08C0839B06C0C0919E02A8
:1005B000C395C0939E02A6C0DF93C0919D02DD2724
:1005C000CE55DD4F839B02C0DF91E6CF2F930F9373
:1005D0001F9300B32FEF03FB20F94F933F9310B30A
:1005E0004FEF012703FB21F93BE031C04E7F012F84
:1005F00010B3216028C0102F4D7F2260000000B38F
:1006000029C04B7F2460012F000010B32BC010B312
:10061000477F28602AC04F7E00B320612CC04F7DE9
:1006200010B320622FC04F7B00B3206432C042273A
:1006300000B349934FEF0000102713FB20F910B3CC
:100640001C70C9F1297F91F2012703FB21F900B346
:10065000237F89F2315058F1102713FB22F910B390
:10066000277E79F2012703FB23F92F7C81F200B367
:10067000102713FB24F92F7971F200C010B3012762
:1006800003FB25F92F7359F200C000B3102713FBA9
:1006900026F9223040F200C010B3012703FB27F9EE
:1006A000243028F64F77206810B30000F9CF10E807
:1006B0001ABF00271CC03B503195C31BD04010E827
:1006C0001ABF0881033C11F10B3401F120919B0208
:1006D0001981110F1213EDCF4A81441F093669F1B8
:1006E0000D3211F0013E29F74F7009F0042F0093ED
:1006F000A1023F914F911F910F912F91DF91CAB7A6
:10070000C7FD47CFCF91CFBFCF9118952091A102C0
:10071000222379F310919F02112309F044C0343051
:100720000AF443C030939F0220939C0210919D02D3
:100730003BE0311B30939D0238C000919F02013095
:1007400094F50AE54F7049F430917D0034FD2FC0D7
:1007500000937D00C8E7D2E02EC0433059F044300A
:1007600091F03091830234FD22C000938302C4E8EB
:10077000D2E021C03091B80234FD19C00093B80214
:10078000C9EBD2E018C030918F0234FD10C0009345
:100790008F02C0E9D2E00FC02795A8F45150A9F408
:1007A000220F0000F9CF4AE503C042ED01C0432FFC
:1007B000C4E1D0E032E011B31C60939A11BB02B3E4
:1007C00020E41CE05F93012756E002BB279520F44C
:1007D000515021F4220FF9CF012756E000003B5A77
:1007E00002BBD0F2279528F4515029F4220F0000C3
:1007F000F9CF012756E0279502BB20F4515021F490
:10080000220FF9CF012756E02991332302BB21F6AD
:10081000037F1091A002110FC651D04002BB11F00E
:1008200010939B0210E81ABF086011B3137F402F8A
:10083000437F5F9100C000C002BB11BB42BB59CFD8
:10084000FC018381833089F130F48130F1F0823012
:1008500021F180E00895813209F446C08232C9F75F
:10086000248135812130310509F45CC02115310521
:1008700009F450C02230310561F786E693E0909389
:10088000700280936F028BE708958CEB94E0909355
:10089000700280936F0282E1089581E694E0909364
:1008A000700280936F028BE5089582818130A1F000
:1008B000882351F0823069F683E494E090937002CB
:1008C00080936F028CE008958DE594E09093700220
:1008D00080936F0284E0089581E594E09093700224
:1008E00080936F028AE008958281813081F08823AD
:1008F00031F0823009F0ADCF8CEA94E002C083E79A
:1009000094E09093700280936F0289E008958CE8E0
:1009100094E0F7CF83E094E09093700280936F02AD
:1009200080E4089521EE33E03093700220936F024B
:10093000089580916A020895089580E008959C01C9
:100940004FB7F8948091B5019091B601A091B7018D
:10095000B091B8014FBF821B930B08958091850120
:1009600081111092850108958091840190918301F5
:10097000892B90918201892B8093E20090918501CF
:10098000992391F0892B8093E20020E084EE90E09F
:10099000FC013191CF0131112F5FF0E08A3E9F07BA
:1009A000B9F721110E94AE04E0919001F0919101FC
:1009B000309731F00280F381E02D82EE90E00994CF
:1009C0000895E4EEF0E09191891303C0DF011197DF
:1009D0001C9290E0EA3EF907B1F70895A4EEB0E06A
:1009E000EFEF90E02D91821751F0EF3F19F42111B4
:1009F00001C0E92F9F5F9630A9F7EF3F09F40895F2
:100A00000E2E000CFF0BEE51FF4F82830895E92F4D
:100A1000EE0F9E0F890F982F977086958695869575
:100A200025E0829FF0011124E958FE4F50E040E09C
:100A300080E0219130E0092E02C0369527950A9476
:100A4000E2F721703327042E01C0220F0A94EAF73F
:100A5000822B4F5F5F4F4530510559F70895E92FBD
:100A6000EE0F9E0F890F982F977041E001C0440F41
:100A70009A95EAF786958695869595E0899FF00187
:100A80001124E958FE4F30E020E070E05191DF0181
:100A90001197CB01022E02C0969587950A94E2F732
:100AA000817081958527842385278C932F5F3F4F05
:100AB0002530310559F708958091760190914501CF
:100AC000981301C008958F5F8770FACF882341F093
:100AD0008095909184018923809384010C94B404BF
:100AE0000895882339F090918401982B9093840184
:100AF0000C94B404089520913B0130913C012817D7
:100B0000390771F090933C0180933B01E091900193
:100B1000F0919101309721F00084F185E02D099446
:100B200008952091390130913A012817390771F061
:100B300090933A0180933901E0919001F0919101F5
:100B4000309721F00680F781E02D09940895E09117
:100B50009001F0919101309721F00190F081E02D0A
:100B6000099480E00895FA01811101C0FB01099404
:100B70008091AD01982F9E7F29F4817082608093CF
:100B8000AD0108958635E8F381708465F8CFAF92A2
:100B9000BF92DF92EF92FF920F931F93CF93DF9359
:100BA000082F162FE901E42FF0E0EC5AFF4F6111F6
:100BB00010C0E4915E2F4E2F4983E8835A83DF9162
:100BC000CF911F910F91FF90EF90DF90BF90AF906A
:100BD0000895E62EF12C4491D42EE42FF0E026E087
:100BE000829FC00111242FEF30E0B9010E940B2435
:100BF000802F90E0880F991F55E5569FD001579F91
:100C0000B00D11248A1B9B0B982F990F890F590146
:100C1000AE18BF08AE9ED001AF9EB00DBE9EB00D07
:100C200011245B2F189F80011124012F11275901D6
:100C3000A01AB10AAE9E8001AF9E100DBE9E100D8F
:100C400011245901A81AB108AE9CC001AF9C900DA7
:100C5000BE9C900D1124892F9927281B390B2E9F9C
:100C6000C0012F9F900D3E9F900D1124E92F6230FF
:100C70007105A1F050F46115710509F49DCF613043
:100C8000710581F0EB2F512F97CF6430710569F01A
:100C900080F06630710509F48FCFF4CFE42F4B2F2D
:100CA000592F8ACFE42F412F87CFEB2F542F492F75
:100CB00083CF4B2F5D2DE12F7FCF4091A201803F4D
:100CC00059F48091A30187FF0DC01092A301411137
:100CD0000BC010929D0108C0813F81F48091A30157
:100CE00018169CF3442381F08091A4019091A501F2
:100CF000892B09F05AC010929A010895823F49F455
:100D000047FFF0CF1092A2018091A3018111ECCF97
:100D1000E0CF833F19F41416ACF3E4CF9091A40113
:100D2000893F29F41916F4F61092A401DBCF8A3F0B
:100D300019F497FFD7CFF8CF9091A5018B3F29F4F5
:100D400097FFD0CF1092A501CDCF8C3F19F4191683
:100D5000CCF3C8CF9CE0980F953090F4845F990B4A
:100D600021E030E0B90102C0660F771F8A95E2F7F3
:100D7000CB0180959091A10189238093A101B2CFED
:100D80008D3F31F480913E018E7F80933E01AACF4A
:100D90008E3F21F480913E018D7FF7CF8F3F09F088
:100DA000A1CF80913E018B7FF0CF089580913E01CD
:100DB00080FD16C081FD16C082FD16C080919A018B
:100DC0008823A1F0883280F428E0829FC00111249A
:100DD00068E270E00E941F24862F672B39F0089587
:100DE00082E0089584E0089588E0089581E0089500
:100DF00080913E0180FD14C081FD14C082FD16C0AB
:100E000080919D01882381F0843180F422E3829FC8
:100E1000C001112464E170E00E941F24862F089510
:100E20008CE0089589E1089585E0089582E30895AE
:100E3000803F31F40E94F80681958093A3010895C4
:100E4000813F19F40E94F806F8CF823F31F40E94E6
:100E5000F80681958093A2010895833F19F40E94BA
:100E6000F806F8CF893F29F40E94D6068093A401A2
:100E700008958A3F21F40E94D6068195F7CF8B3FD3
:100E800031F40E94D60681958093A50108958C3F88
:100E900019F40E94D606F8CF9CE0980F953070F4B4
:100EA000845F990B21E030E001C0220F8A95EAF7B8
:100EB0008091A101822B8093A10108958D3F31F48F
:100EC00080913E01816080933E0108958E3F21F420
:100ED00080913E018260F7CF8F3FB9F780913E014C
:100EE0008460F1CFF894E82FE295EF70F0E031A93B
:100EF000282F2F7081E090E001C0880F2A95EAF733
:100F0000982F9095932391AB92A9892B82AB7894DB
:100F1000089590918D0192FF06C0282F28712830E6
:100F2000F9F4877F846093FF06C0282F2871283149
:100F3000F1F4877E846120918E0120FF06C0382F56
:100F400038713830D9F4877F816021FF06C0282F9F
:100F500028712831D1F4877E816194FD877E0895C0
:100F6000282F24712430F9F68B7F8860DCCF282F5E
:100F70002471243101F78B7E8861DDCF382F3171E8
:100F8000313019F78E7F8860E0CF282F2171213111
:100F900021F78E7E8861E1CFCF93DF9380919F020E
:100FA000835087FD14C090919D02CCE0D0E0C91B16
:100FB000D109CE55DD4F90919C02903108F06BC065
:100FC000883009F453C010925F0210929F02809102
:100FD0007D0084FF3EC080917C008F3FD1F1C82FFF
:100FE000893008F0C8E0982F9C1B90937C0090916A
:100FF000780228E89227909378028823E9F080917C
:101000006F029091700220916E0226FF06C1FC01D2
:101010002C2FA9E7B2E034913D9331962150D9F7B6
:101020009C012F5F3F4F8FEF8C0F820F932F911DED
:101030009093700280936F026C2F89E792E00E9478
:10104000C202CC5FCC3019F08FEF80937C00C0934C
:101050007D0084E190B39C7031F48150D9F71092F7
:10106000A00210929B02DF91CF91089580915F02C0
:10107000893108F0A8CFE82FF0E0E15CFD4F9E0138
:10108000285F3F4F999191932C173D07D9F7885FBF
:1010900080935F029ACF9D3209F0A3C0883009F097
:1010A00094CF83EC809378028AE580937D00109240
:1010B0006E028881807609F447C0803229F58981E3
:1010C000813099F48C819D81892BF1F481E692E045
:1010D0009093700280936F0288E09F81911131C0DC
:1010E0009E81981770F5892F2CC0823041F480E6DC
:1010F00092E09093700280936F0281E0EECF8A308D
:1011000029F48B818093600280E0E7CF8930E1F79A
:101110008A819B818115924069F48C819D81892B04
:1011200049F481E080936D028E819F8190936C02DF
:1011300080936B02888187FF52C08E8190E89093E4
:101140006E0280937C0041CF2A81109281029981A6
:1011500091110AC01092820221E832E082E03093BD
:10116000700220936F02B9CF953029F42093A0022A
:1011700021E832E0F4CF9630C1F49B81913049F4FC
:10118000CE010E94200490E490936E028F3F91F272
:10119000A4CF9230A9F3933099F3913289F392322C
:1011A00079F390E490936E0298CF983089F099305B
:1011B00019F420936902DCCF9A3071F09B30C1F6AC
:1011C0009BE4909384029093B90290939002D0CFC5
:1011D00029E632E081E0C3CF21E832E0FBCF8FEF98
:1011E000ADCF80916E0287FFF0CE80916B0290911F
:1011F0006C02892B71F080916D02813051F48881ED
:1012000080936A0210926C0210926B0210927C0022
:10121000DCCE8EE180937D00D8CEDC012C2FE9E777
:10122000F2E03D9131932150E1F7FACE1F93CF9335
:10123000DF93E82F792F162FEA01888184FF1CC0E5
:10124000298188E828272983CE010296DC012E2FE8
:10125000372F512F5E0FF90121912D939F01452FBB
:101260004E1B1416C4F3612F0E94C2021C5F188328
:10127000DF91CF911F9108958AE58883E5CF209172
:10128000B80224FF05C048EB52E066E00C94160952
:101290000895CF93DF9300D00F92CDB7DEB7909132
:1012A0003E02981307C020913C0230913D02261760
:1012B0003707A1F080933E0270933D0260933C0299
:1012C00089837B836A838091B80284FF07C048EBDF
:1012D00052E063E0CE0101960E9416090F900F9034
:1012E0000F90DF91CF910895BC0184E00C944909DF
:1012F000BC0183E00C944909CF93DF93CAE0D0E0AE
:101300008091830284FF1CC080913A0290913B023D
:10131000981799F028E0829FC001112443E852E019
:1013200068E086549E4F0E94160980913A0290E030
:1013300001968F70992780933A02DF91CF9108959B
:101340000E94CC0787EB9BE00197F1F700C00000FB
:101350002197B1F6F2CFCF93DF93EC01A0913B023E
:10136000B0E0CD0101968F70992720913A0228179D
:1013700079F093E0AA0FBB1F9A95E1F7A654BE4FF0
:1013800098E0FE0101900D929A95E1F780933B025F
:101390000E94CC070E947C0988E0FE01A1E6B2E031
:1013A00001900D928A95E1F7DF91CF910895CF9347
:1013B00084E090E00E94B824C82F81E290E00E946F
:1013C000B824982F8C2FCF9108950F931F93CF930C
:1013D000DF93C42FD0E0CC0FDD1F26E0629FC00D4D
:1013E000D11D112432E1839FC00DD11D1124CE01E6
:1013F00086960E94B824082F10E0102F0027CE01F7
:1014000087960E94B8249801282BC901DF91CF91BB
:101410001F910F910895462F843038F4733028F4CB
:10142000633018F4672F0C94E50990E080E008958C
:10143000CF93DF930E940B0AEC0182389105A9F14A
:10144000D8F58133910509F496C048F589329105A4
:1014500009F48AC08A9709F495C0C11521E5D2071D
:1014600008F0BCC0C11530E5D30708F014C1C83E70
:10147000D10508F09CC0C03ED10560F5C83AD10541
:1014800008F087C0C53AD10508F0FDC0C130D105CC
:1014900009F12097F9F0C430D105E0F440C085335C
:1014A000910509F45AC0C997C1F680918D018370E6
:1014B00089F0C0EED0E00EC0833E910599F170F442
:1014C000803E910501F1823E910539F680918D01B2
:1014D00082FD21C0CE01DF91CF910895863E910516
:1014E00061F1873E910571F1843E910509F0B5CF18
:1014F00080918E0181FFEECF80918D01C7EED0E00B
:1015000084FD0DC0E7CF80918D0180FD12C19091C7
:101510008E0190FFDFCFC3EED0E084FFDBCFD0E0C1
:10152000C0E0D8CF80918D0182FD06C190918E01DF
:1015300090FDBFCF84FFCECFF2CF80918D0183FD90
:10154000DDCFC8CF80918D0183FDF9C090918E01D0
:1015500091FFF0CFC4EED0E0BDCF80918D0185FF2B
:10156000B9CFC9E2D0E0B6CF80918D0185FFB2CF6F
:10157000C5E3D0E0AFCF80918D0186FFABCFCAE24B
:10158000D0E0A8CF80918D0186FFA4CFC1E3D0E049
:10159000A1CFCF3BD10518F6C85AD0E0CC0FDD1F44
:1015A000C455DF4F0990D881C02DD46493CFC115A5
:1015B00040E2D40758F4C11581E0D80708F08ACF7B
:1015C000C03FD10508F4ABCFD06584CFC11590E4FE
:1015D000D90708F4A4CFDF70D06A7CCFC11525E508
:1015E000D20700F5C11534E5D30708F08AC0C1154C
:1015F00043E5D40708F071C0C11582E5D80708F4A7
:1016000067C0CE018370992721E030E002C0220F2D
:10161000331F8A95E2F7C695C69580E2C89FE00120
:10162000112452C0C11599E5D907A8F4C11528E5C0
:10163000D20708F06BC0C11536E5D30708F06FCFAD
:101640008C2F0E948907C82FD0E0DC2FCC27CC2715
:10165000DF71D0623FCFC1154AE5D40708F45BC003
:10166000CE0190568115904208F059CF8D2F8F7181
:101670000E94890790E0982F882788279F719C01F6
:101680002C2BE901E6CFC55AD0E0C755DF4FC88102
:10169000D0E0D0641FCFCE01E4E096958795EA951F
:1016A000E1F783702C2F26952695237040E2249F26
:1016B00090011124382B8C2F8370C1E0D0E002C040
:1016C000CC0FDD1F8A95E2F7C22BD32BDC6802CF4B
:1016D000DC2FCC27C16FD06AFDCECE018370992755
:1016E00021E030E002C0220F331F8A95E2F7C69551
:1016F000C69590E2C99FE0011124C22BD32BDA6872
:10170000E9CEDC2FCC27C46FD06AE4CEDC2FCC2707
:10171000C06FD06ADFCE8C2F8F700E94890734E0B3
:10172000D695C7953A95E1F7CF709C2FEC01D0691B
:10173000D1CEC9E3D0E0CECEC2EED0E0CBCEC6EE65
:10174000D0E0C8CEBF92CF92DF92EF92FF920F937C
:101750001F93CF93DF938C01C0907402D0907502D9
:10176000E0907602F0907702809186019091870157
:10177000A0918801B0918901C82AD92AEA2AFB2AB6
:10178000CFE1D0E0BC2ED701C6010C2E04C0B69527
:10179000A795979587950A94D2F780FD0EC021975B
:1017A00088F7B12C8B2DDF91CF911F910F91FF9076
:1017B000EF90DF90CF90BF900895B8018C2F0E94DA
:1017C000180A019761F3EECFCF93DF93EC010E94EB
:1017D000A20BBE01DF91CF910C94180A0E94E40B7A
:1017E000292F2F7092959F7092509E3078F4E92F98
:1017F000F0E0EF58FA4D0C943324803F19F020F4B8
:10180000883E20F481E00895843FE1F380E008956C
:10181000883EC0F3813FD1F7F5CF822F869586951C
:10182000869508956F927F928F929F92AF92BF920A
:10183000CF92DF92EF92FF920F931F93CF93DF939C
:1018400089E5C82E82E0D82E9EE3E92EF12CE7012F
:10185000629736011BC0F50185909490692DC801EF
:101860000E94CC24682DC80101960E94CC2482E0FD
:10187000A80EB11C0E5F1F4FC017D10761F786E09D
:10188000680E711C2696CE15DF0529F08E010650D4
:1018900011095301E0CF7E0182E1E80EF11C82E1E3
:1018A000C80ED11C86E8E816F10489F6DF91CF91C5
:1018B0001F910F91FF90EF90DF90CF90BF90AF906E
:1018C0009F908F907F906F900895CF93DF93CEE697
:1018D000D0E060E0CE010E94CC242196C11584E0C6
:1018E000D807B9F7DF91CF91089560E081E090E0EB
:1018F0000E94EF2487E090EBDC018093C402909378
:10190000C502A093C602B093C70288E19CE00FB65F
:10191000F894A89581BD0FBE91BDFFCF6BEE7EEF11
:1019200090E080E00E94E92460E082E090E00E9484
:10193000CC2460E083E090E00E94CC2410928601E9
:1019400010928701109288011092890160E084E072
:1019500090E00E94CC2460E081E290E00E94CC24E0
:1019600060E085E090E00E94CC2460E086E090E0BA
:101970000E94CC246FEF87E090E00E94CC2440E0EE
:1019800050E0BA0188E090E00E94DD2460E08DE044
:1019900090E00E94CC2440E050E0BA0188E190E061
:1019A0000E94DD2460E087E190E00E94CC2440E0CA
:1019B00050E0BA018CE190E00E94DD2460E080E21A
:1019C00090E00E94CC2440E050E0BA0188E190E031
:1019D0000E94DD2440E050E0BA018FE090E00E94D8
:1019E000DD2440E050E0BA0183E190E00C94DD2476
:1019F000CF92DF92EF92FF926B017C010E94B805BB
:101A0000B701A60188E090E0FF90EF90DF90CF90C3
:101A10000C94DD248091B101882319F081508093CA
:101A2000B1016091AD017091AE018091AF019091D3
:101A3000B0010C94F80C8091B101833018F48F5FE1
:101A40008093B1016091AD017091AE018091AF01C1
:101A50009091B0010C94F80CEDEAF1E083E0808302
:101A600011828FEF828383831482608171818281EE
:101A700093810C94F80C8091AD0180FD0AC0E1EFD8
:101A8000F0E0118210821282339681E0EC30F80788
:101A9000C1F78091ED00811105C00E943D2381E0D6
:101AA0008093ED0024E630E04BE150E061EF70E020
:101AB00080EB0C94CB238091B9018823E9F010923C
:101AC000AC0180919301811117C081E08093930153
:101AD0008091AD01982F9170909392018E7F8093A9
:101AE000AD012FEB84ED91E0215080409040E1F773
:101AF00000C000000C943B0D08954F925F926F92CE
:101B00007F928F929F92AF92BF92CF92DF92EF928D
:101B1000FF920F931F93CF93DF93FC016280448069
:101B200081E08483E9E5F1E07490E8EDF1E0E4918F
:101B3000CCE0D1E031EFE32E30E0F32E49E3C42EC8
:101B400041E0D42E52E0A52EBB24B39488248A947D
:101B5000912C55245A94E7190E2F10E082E0861537
:101B600030F08091AE0188838091AF01898341106C
:101B700021C01B821A8297014A81698188810E9453
:101B8000C705259683E0E80EF11CCC16DD0631F77B
:101B9000DF91CF911F910F91FF90EF90DF90CF9049
:101BA000BF90AF909F908F907F906F905F904F907D
:101BB0000C943B0D8B818823E9F081508B83859DAC
:101BC000C00111246C8170E00E940B24FB01FF27EF
:101BD000E75AFE4F8491E82FE719E59DC0011124D3
:101BE000B8010E940B248091B001689FB0011124BC
:101BF0007A83C1CF0E949B242091B0012695215861
:101C00002A9DA0012B9D500D1124452F5527841787
:101C100095070CF0B0CF82E0861588F40E949B24D3
:101C2000B4010E941F2488830E949B242091AF014D
:101C30002695622F70E00E941F24280F29831A82A4
:101C40008091B001893C20F088EC8C838B8393CF0A
:101C50008431D8F784E1F9CFEF92FF921F93CF93AD
:101C6000DF93EC0181EFE82E80E0F82E10E08C810C
:101C700097014091B0016091AF01810F0E94C705AB
:101C8000145E83E0E80EF11C1C3F89F70E943B0DB7
:101C90009A818C8190FF08C08F5F8C83DF91CF91F8
:101CA0001F91FF90EF9008958150F7CFBF92CF9290
:101CB000DF92EF92FF920F931F93CF93DF93FC017C
:101CC0008281DD24DA9480FD02C0DD24D39401EF0B
:101CD00010E0D0E0C0E029E0B22EF80111821082BD
:101CE000128294E0E92EF12CC12C8091EE008C0D33
:101CF0008A300CF43DC06B2D0E94FD23892F082EE5
:101D0000000C990B8C179D0791F48091B0018E9D6A
:101D1000A0018F9D500D11245595479555954795D8
:101D200098016091AF018091AE010E94C705CD0C72
:101D3000F1E0EF1AF108C9F621960D5F1F4FC93087
:101D4000D10559F60E943B0D8091EE0091E0D91229
:101D500015C0811111C088E08093EE00DF91CF9112
:101D60001F910F91FF90EF90DF90CF90BF9008955B
:101D700087FFC5CF875FC3CF8150EECF90E001963C
:101D8000BE010E941F24E8CF0F931F93CF93DF93D0
:101D9000C1EFD0E0FE01118210821282339681E001
:101DA000EC30F807C1F710E000E08091EF00082E5A
:101DB000000C990B081719078CF180917000082E00
:101DC000000C990B801791074CF19E014091B001D6
:101DD0006091AF018091AE010E94C7050F5F1F4F58
:101DE00023960930110509F70E943B0D80916F0081
:101DF0009091EF00980F9093EF0020917000280FC2
:101E000020937000121614F498301CF08195809382
:101E10006F00DF91CF911F910F9108951982188261
:101E20001A82DCCF8F929F92AF92BF92CF92DF92B5
:101E3000EF92FF920F931F93CF93DF93EC014C81AE
:101E4000042F10E09801D8010E9460259B01AC018D
:101E50000E942B254B015C01E0E2F0E0E01BF10B5E
:101E6000A5E5B0E0AC019B010E942B256B017C0134
:101E70009F01DF010E9440249B01AC010E94362596
:101E80009B01AC01280D391D4A1D5B1DC701B60120
:101E90000E943E25F22E822F90E039E23F15D8F1C4
:101EA00043E0249F9001112435952795122F10951A
:101EB00091EFC92E90E0D92E00E085E5E82EEF18CD
:101EC0008E2D01FD8F2D9601412F6091AF010E9453
:101ED000C7050F5F53E0C50ED11C093089F70E947A
:101EE0003B0D9C8181E0992319F0903219F48FEF1A
:101EF0008093710080917100890F8C83DF91CF9165
:101F00001F910F91FF90EF90DF90CF90BF90AF9017
:101F10009F908F90089525E530E0A901481B590B4B
:101F2000CA019A01220F331F280F391F37FFBCCF78
:101F30002F5F3F4FB9CFEF92FF920F931F93CF9335
:101F4000DF938C01C1EFD0E0F12CE12CF8019481FA
:101F50006091AF018091AE01F4E0EF16F104FCF462
:101F60009923F9F09E014091B0010E94C7052FEF1F
:101F7000E21AF20A239689E0E816F10439F70E9482
:101F80003B0DF801848190E001968170992784834C
:101F9000DF91CF911F910F91FF90EF9008959923BA
:101FA00009F39E0140E0E1CF9091AD0190FF0CC09C
:101FB000E1EFF0E0818360834283339691E0EC307F
:101FC000F907C1F70C943B0D08950F931F93CF931E
:101FD000DF9300D00F92CDB7DEB78C018091F00077
:101FE00081110AC09E012F5F3F4F4FEF6FEF0E949C
:101FF000C7058A818093F000F8016481613069F03F
:102000008091F00040E0662361F040E0623011F41E
:102010004091F00080E060E004C06091F00040E09A
:1020200080E00E94D40FF801848190E0019663E083
:1020300070E00E941F2484830F900F900F90DF9117
:10204000CF911F910F910895CF93DF9300D00F92FE
:10205000CDB7DEB79091AD0190FF0AC09E012F5F12
:102060003F4F0E94C7054B8169818A810E94D40F2E
:102070000F900F900F90DF91CF910895CF93DF9342
:10208000EC01EC81F0E0E75AFE4F4491EDEAF1E01B
:10209000628181810E9424108C818F5F8C83DF910B
:1020A000CF910895CF93DF93EC01EDEAF1E0438106
:1020B00062818C810E9424108C818F5F8C83DF91E0
:1020C000CF9108955F926F927F928F929F92AF927D
:1020D000BF92CF92DF92EF92FF920F931F93CF9315
:1020E000DF9300D00F92CDB7DEB7182F762E042FD6
:1020F000622E9091AD0190FF29C0E92FE695AE2F99
:10210000B0E0A258BF4F8C918093AB019E7F92307C
:1021100081F59E012F5F3F4F812F0E94C7054B81A4
:1021200069818A810E94D40F1093AE017092AF0131
:102130000093B001662051F06091AD017091AE0145
:102140008091AF019091B0010E94F80C0F900F9018
:102150000F90DF91CF911F910F91FF90EF90DF9043
:10216000CF90BF90AF909F908F907F906F905F9037
:102170000895823019F40091B001D6CF863019F459
:102180001091AE01D1CF8930D9F3893169F6E95187
:102190008E2F8170582EE695F0E0EC5AFE4FA590F8
:1021A000B490BB2481EFE82E80E0F82ED12CC12C16
:1021B00099E0892E912CC601B4010E940B24812F35
:1021C000511013C0860F9701402F672D0E94C7053D
:1021D000CA0CDB1C83E0E80EF11C8CE0E81681E001
:1021E000F80649F70E943B0D9FCF861BECCFEDEA26
:1021F000F1E0438128E0421B08F440E021E06281E5
:1022000081810C946210EDEAF1E0438128E0420FF5
:1022100008F44FEF21E0628181810C946210EDEAB5
:10222000F1E0628128E0621B08F460E021E0438174
:1022300081810C946210EDEAF1E0628128E0620F86
:1022400008F46FEF21E0438181810C946210EDEA84
:10225000F1E0818121E04381628188500C94621019
:10226000EDEAF1E0818121E043816281885F0C9495
:10227000621078941F921FB61F9211248F939F9320
:10228000AF93BF938091B5019091B601A091B70132
:10229000B091B8010196A11DB11D8093B501909335
:1022A000B601A093B701B093B801BF91AF919F91D0
:1022B0008F911F901FBE1F9018952FB7F894809193
:1022C000B5019091B601A091B701B091B8012FBFAF
:1022D00008956091AD01669570E04BE050E084E6B2
:1022E00090E00E94AB24892B19F481E08093AC012B
:1022F0000E945D11909395018093940108959091AF
:10230000AD0190FF36C09170811129C09260909309
:10231000AD01662351F06091AD017091AE018091E5
:10232000AF019091B0010E94F80C6091AD016695EB
:1023300070E04BE050E084E690E00E94AB24892BF3
:10234000A9F01092AC0181E08093970120E04091C8
:10235000B0016091AF018091AE010C9462108B329C
:1023600010F09465D4CF880F982BD1CF0E946911BB
:10237000EACF08958091AD018695815009F48AE2F3
:1023800061E00C947F118091AD0186958F5F8B3257
:1023900008F081E061E00C947F119091AD0190FF15
:1023A00007C09695981720F0961710F40C94C31157
:1023B00061E00C947F110E945D119C019091A2013B
:1023C0008091A301982B21F030939F0120939E01CF
:1023D0009091A4018091A501982B21F030939C014C
:1023E00020939B01E0919001F0919101309749F089
:1023F00082E08093A0010480F581E02D80EA91E0E5
:102400000994089590E080E00E94910590E080E0BA
:102410000E947B0510928301109282010E94B404F5
:1024200086E0E0EAF1E0DF011D928A95E9F710927B
:102430009D0110929A0110923E010C94DB11609361
:1024400074027093750280937602909377020C94D5
:1024500002120F931F936091740270917502809124
:102460007602909177028B019C010670112722273A
:102470003327063011052105310529F468601F91C5
:102480000F910C941F12677FFACF0F931F9341E0B7
:1024900050E060E070E004C0440F551F661F771FD6
:1024A0008A95D2F7CB01BA01609570958095909589
:1024B000009174021091750220917602309177029A
:1024C00060237123822393231F910F910C941F1279
:1024D000909181018095892380938101282F277015
:1024E00071F4282F082E000C330B9217130639F0C5
:1024F0008595859585950E944512109281010895D4
:102500000F931F9341E050E060E070E004C0440F7F
:10251000551F661F771F8A95D2F78091740290919C
:102520007502A0917602B09177028A019B01082B77
:10253000192B2A2B3B2BC901B8011F910F910C9429
:102540001F12609386017093870180938801909396
:1025500089010C94021210928401E4EEF0E086E00E
:10256000DF011D928A95E9F70C940212882309F481
:1025700059C0823871F40E94A70581FF53C089E3D6
:102580000E94EE040E94B40489E30E94E1040C94CA
:10259000B404833859F40E94A70580FF43C083E543
:1025A0000E94EE040E94B40483E5EFCF843859F40E
:1025B0000E94A70582FF36C087E40E94EE040E94B5
:1025C000B40487E4E2CF9CEF980F913AF0F290E2E6
:1025D000980F983088F4877021E030E0A90102C09C
:1025E000440F551F8A95E2F7CA01809590918401A6
:1025F000892380938401CBCF9BE5980F933020F4FF
:1026000090E080E00C94910598E5980F973120F4C4
:1026100090E080E00C947B05803F20F00E945D06F6
:102620000C94DB110895CF93C82F882309F490C030
:102630008238C1F40E94A70581FD8AC089E30E9407
:10264000EE040E94B4042FE789EA93E02150804011
:102650009040E1F700C0000089E30E94E104CF91BF
:102660000C94B4048338A1F40E94A70580FD70C0C7
:1026700083E50E94EE040E94B4042FE789EA93E008
:10268000215080409040E1F700C0000083E5E5CF95
:102690008438A1F40E94A70582FD5AC087E40E94F5
:1026A000EE040E94B4042FE789EA93E021508040B1
:1026B0009040E1F700C0000087E4CFCF8CEF8C0F93
:1026C000813A68F4E4EEF0E08191C817D9F120E096
:1026D000EA3EF207C9F78C2F0E94EE04C0CF80E2D9
:1026E0008C0F883068F4C77021E030E001C0220F01
:1026F000CA95EAF780918401822B80938401AFCF41
:10270000EBE5EC0FE33040F4F0E0E755FF4F80815C
:1027100090E0CF910C949105E8E5EC0FE73150F48F
:10272000F0E0EE0FFF1FE455FF4F80819181CF91C4
:102730000C947B05C03F60F08C2F0E941807CF914E
:102740000C94DB118C2F0E94E1040E94B404C3CFCF
:10275000CF9108951F93CF93DF93182FD0E0C0E05F
:10276000893311F4C0E5D0E0812F0E941313209724
:1027700031F4812FDF91CF911F910C94B61287EB2A
:102780009BE00197F1F700C000002197F0CF0F9375
:102790001F93CF93DF93C62FD42F022FFC0182818A
:1027A0008823A1F0609373020E945D1190937202DE
:1027B00080937102C77081E001C0880FCA95EAF763
:1027C000DF91CF911F910F910C947105809173024D
:1027D000681335C080917102909172020E949F042B
:1027E000883C910560F510E21D0FCD17B9F080E22D
:1027F0008C0F883040F4C77081E001C0880FCA9503
:10280000EAF70E946605183048F481E09D2F977022
:1028100001C0880F9A95EAF70E947105802F0E94E7
:10282000AA13183098F4D77081E001C0880FDA95A8
:10283000EAF7DF91CF911F910F910C946605C77055
:1028400081E001C0880FCA95EAF7F3CFDF91CF91FD
:102850001F910F9108953F924F925F926F927F92D6
:102860008F929F92AF92BF92CF92DF92EF92FF92A0
:102870000F931F93CF93DF9300D000D00F92CDB76B
:10288000DEB78C01FC0183819481892B31F080813A
:10289000918189238F3F09F03CC60F900F900F90D4
:1028A0000F900F90DF91CF911F910F91FF90EF90BC
:1028B000DF90CF90BF90AF909F908F907F906F9060
:1028C0005F904F903F9008950E94A20BF82E682FC2
:1028D00089819A810E942F0569817A818F2D0E94BA
:1028E0000B0A7C01F8019281992309F405C697012E
:1028F00022513F452031310508F0D1C58FEF93E0DB
:102900000E94B824FEEEEF0E5EE6852E912C882301
:1029100081F180918101877009F4BFCFF801828134
:10292000882309F4BACF82E00F900F900F900F9098
:102930000F90DF91CF911F910F91FF90EF90DF905B
:10294000CF90BF90AF909F908F907F906F905F904F
:102950004F903F900C946812811424E09206C9F2C3
:10296000C4010E94B824811101C0EA943FEF831A88
:10297000930AE110F1CF1C821B82442443944AE065
:10298000342E74018FEFE81AF80AC4010E94B824AB
:1029900089831A82882309F4BCCF9FEF980F933064
:1029A00000F58A83498292E0890E911CC7010E943A
:1029B000B8248B83882309F4ACCFFE0131967F01C4
:1029C000F70120812223E9F2213009F049C09181E9
:1029D0008281913041F4F2E0EF0EF11C0E94AA13C3
:1029E00009C04701EACF923049F422E0E20EF11C1F
:1029F0000E9413133FEFE31AF30AE2CF933031F44E
:102A000032E0E30EF11C0E94B612F4CF943021F0B4
:102A10008FEFE81AF80AEECF92E0E90EF11C30E0F1
:102A200020E0B7016F5F7F4FF70141818053990B21
:102A30008A30910550F021503109E0F287EB9BE09C
:102A40000197F1F700C00000F6CF329EF001339EEF
:102A5000F00D11249C012E0F3F1F842F7B01E1CF2D
:102A6000E22FF0E0EF52FD4F5490822F869586952D
:102A7000869590E0FC01EF53FD4F64902770712C18
:102A8000022E02C0759467940A94E2F7E1E06E2288
:102A90007724FC01EF54FD4FA490B12C022E02C00C
:102AA000B594A7940A94E2F7F1E0AF22BB24FC01AD
:102AB000EF55FD4FC490D12C02C0D594C7942A95F0
:102AC000E2F721E0C222DD246114710419F081EEE5
:102AD0000E941313A114B10419F086EE0E9413137F
:102AE000852D0E94AA13AB2819F086EE0E94B6121B
:102AF000672819F081EE0E94B612CD2809F47ACF2A
:102B00008CE26CCF81E00E9480120E94291201CFDA
:102B100081E00E944512F9CF82E0F5CF85EFE816FB
:102B20008CE5F80609F46AC008F464C027E245EEB3
:102B300066EEF6EFEF16FCE5FF0609F4D9C499231B
:102B400009F4F8C41092730222E0E2162CE5F206B2
:102B500008F44DC136E1E3163CE5F30638F0970181
:102B60002A5F3C452930310508F041C10E94D70950
:102B700090938E0180938D0180E1E8168CE5F80634
:102B800009F404C108F083C0E8E0EE16ECE5FE06A7
:102B900009F4EEC008F04FC024E0E2162CE5F2067E
:102BA00009F4DEC090F582E0E8168CE5F80609F439
:102BB000D1C080918D01826093E0E9169CE5F90611
:102BC00009F4CBC060918D01F0908E0184E090E01B
:102BD0000E94CC246F2D81E290E00E94CC240E94C0
:102BE000AB1297CE27E245EE65EE82C426E241EEB7
:102BF00060EE7EC427E245EE64EE7AC426E241EE42
:102C000062EE76C428E241E0EFCF80918D018061D1
:102C1000E6E0EE16ECE5FE0609F49FC080918D011A
:102C20008860F7E0EF16FCE5FF0608F496C0809197
:102C30008D01806292C080918D018D7F2CE0E21623
:102C40002CE5F20609F489C060F48AE0E8168CE508
:102C5000F80609F497C008F48FC080918D018E7F2B
:102C60007CC080918D01877FEEE0EE16ECE5FE06DC
:102C700009F473C080918D018B7FFFE0EF16FCE5B6
:102C8000FF0608F46AC080918D018F7E66C02BEF2D
:102C9000E2162CE5F20609F467C068F583E1E81650
:102CA0008CE5F80609F47AC090F4E1E1EE16ECE563
:102CB000FE0609F46FC0F2E1EF16FCE5FF0609F02D
:102CC00081CF0E94AB1280918D018F7746C025E1A4
:102CD000E2162CE5F20609F469C008F47DC08AEF1B
:102CE000E8168CE5F80609F06DCF80918E018160C1
:102CF00080938E0167CF9FEFE9169CE5F90609F4F2
:102D000051C0A0F480918E018D7FFDEFEF16FCE5A0
:102D1000FF0671F380918E018E7F2EEFE2162CE577
:102D2000F20630F380918E018360E2CF31E0E3164A
:102D30003DE5F30609F459C008F444C060E092E0B0
:102D4000E9169DE5F90609F03DCF8EE090E00E947E
:102D5000CC2438CF80918D01816080938D0132CF5A
:102D600080918D018460F9CF80918E018260C0CF07
:102D700080918D018064F1CF0E94AB1280918D0112
:102D80008068EBCF80918D018C60E7CF80918D01C1
:102D90008F7DE3CF80918D018F7BDFCF80918D017F
:102DA000837FDBCF80918E018C7FA2CF80918D01BC
:102DB00082FB992790F921E0922790FB82F990FB02
:102DC00083F9CBCF80918E01982F909591708E7F53
:102DD000892B90FB81F98CCF0E94AB1290918D01D1
:102DE000892F97FB87F98058B8CF61E0AECF8091EB
:102DF0008401E6E1EE16ECE5FE0609F0A9C38A7A45
:102E000091E009F490E090933D01811106C089E2C0
:102E10000E94EE040E94B4047CCD85E3F9CF85E3E3
:102E200094C38091AD0180FF1BC08E7F8093AD0164
:102E30006091AD017091AE018091AF019091B001B0
:102E40000E94F80C1092AC01FFEB24ED31E0F15040
:102E500020403040E1F700C000000E943B0D59CDFA
:102E600081608093AD0161E086950E947F1151CD14
:102E70004AEB51E163EC71E10E94B3054ACD43ECAA
:102E800051E16AEB71E1F8CF47E251E160E371E1B2
:102E9000F3CF40E351E167E271E1EECF4FE051E162
:102EA0006BE171E1E9CF4BE151E16FE071E1E4CF1A
:102EB00047EF50E163E071E1DFCF43E051E167EFBD
:102EC00070E1DACF4AE05DE06BE17DE0D5CF4BE128
:102ED0005DE06AE07DE0D0CF61E081E0C6CF65E0F3
:102EE00082E00E94CD1115CD68E086E0FACF6EE059
:102EF00089E0F7CF64E18FE0F4CF67E185E1F1CFBE
:102F000061E088E1B2CF62E289E1EBCF61E083E288
:102F1000ACCFE1148CE5F80609F447C0EEEDEE16EF
:102F2000ECE5FE0609F44EC0F801E080F18099233B
:102F300009F44BC0C7010E94A20BD82E682FC7010D
:102F40000E942F05B7018D2D0E94180A7C01882E42
:102F5000F801D280A580A2943FE0A3228091810154
:102F60008770A1F0CD2CDD2091F08F2D807F8034F3
:102F700021F080E28E0D883048F082E00E946812D5
:102F8000809181018770CC24C3948111C12C3F2C86
:102F900032942FE03222FBE0F31508F452C0E32D07
:102FA000F0E0E158FA4D0C9433240E94AB12FFEB91
:102FB00027E239E0F15020403040E1F700C0000046
:102FC0000E94750C0E948E0CA4CCC7010E940705BC
:102FD000D82EB8CF2F2D2F70A22E8F2D807F19F0D5
:102FE000A29490EFA922DD20C9F0AA2069F080E226
:102FF0008E0D883010F081100BC080918401A82ABA
:10300000A09284010E94B4048E2D0E94131319C053
:1030100080918301A82AA0928301F4CF8E2D0E9473
:10302000B612AA2071F0A09480E28E0D883010F0C4
:1030300081103DC080918401A822A09284010E9449
:10304000B404232D2850330B2430310510F40E9492
:10305000A705CC2009F421CC8091810180FD1DCCF5
:10306000F80112828595859585950E948012C80188
:103070000E942B14809181018595859585950F90EF
:103080000F900F900F900F90DF91CF911F910F91A4
:10309000FF90EF90DF90CF90BF90AF909F908F9078
:1030A0007F906F905F904F903F900C94451280916D
:1030B0008301A822A0928301C2CF3F2D3F70932E9F
:1030C0008F2D807F803219F0929480EF9822882093
:1030D00071F081E0881661F1DD20B9F1AA2071F16B
:1030E000F801858180FF90CF8F70858327C0DD2018
:1030F00091F090918501892D892BA11003C00E9428
:1031000071059FCFE1E0AE12FACF981709F499CF7D
:103110008093850196CFA11006C00E94AE04892D30
:103120000E9466058ECFF1E0AF1609F48ACFF5CF85
:10313000DD2031F025E02A1508F483CF892DDFCF7B
:1031400034E03A1508F47DCFEACFAA2041F3F9E341
:103150008F1209C02FEF3DEE82E0215030408040B9
:10316000E1F700C000008E2D0E94B6126ACF8F2DAD
:1031700086958695837061F0813009F062CFC70132
:103180009370D11002C090E080E00E947B0559CF7F
:10319000C7019370D11002C090E080E00E949105B9
:1031A00050CF8E2DDD2029F00E9418070E94DB11E0
:1031B00048CF0E945D06FACF8F2D837009F066C05C
:1031C000D1103FCF8E2D829586958770880F880FFE
:1031D0006E2D6F70462E512C712C612C082E04C060
:1031E000440C551C661C771C0A94D2F740E050E052
:1031F000BA01E4FE0FC04FE050E060E070E004C0B0
:10320000440F551F661F771F8A95D2F7409550953A
:10321000609570958F2D869586958370823019F113
:10322000D8F48090860190908701A0908801B0909A
:103230008901813069F04429552966297729CB0114
:10324000BA01682179218A219B210E94A112F9CE1D
:10325000482859286A287B28CB01BA016429752996
:1032600086299729F2CF4429552966297729409044
:103270008601509087016090880170908901CB0190
:10328000BA016425752586259725DFCF8695DD2033
:1032900011F08F2D8170882309F4D3CE8E2D829565
:1032A00086958770880F880F6E2D6F70462E512C73
:1032B000712C612C082E04C0440C551C661C771C14
:1032C0000A94D2F740E050E0BA01E4FE0FC04FE0AC
:1032D00050E060E070E004C0440F551F661F771F88
:1032E0008A95D2F740955095609570958F2D86956B
:1032F00086958370823019F1D8F480907402909092
:103300007502A0907602B0907702813069F044296E
:10331000552966297729CB01BA01682179218A21AB
:103320009B210E941F128DCE482859286A287B288D
:10333000CB01BA016429752986299729F2CF44293E
:103340005529662977294090740250907502609043
:10335000760270907702CB01BA0164257525862527
:103360009725DFCF9F2D9F70F92EDD2029F0892F23
:103370000E9480128E2DC3CE8E2D0E9466058F2D49
:103380000E9445125ECE8E2DE2EF8E1609F453C0D8
:10339000E81578F0F0EF8F1629F121EF821609F485
:1033A00042C0DD2009F46BC0A1102ECE8F2D8F718D
:1033B0003FC033EF831609F443C094EF8912F1CF75
:1033C000DD2009F451C02F2D2F71F22E822F0E9483
:1033D000801238E0F39EC001112483608093810144
:1033E0008F2D26C0DD20D1F0E4E0EA1508F429CEC7
:1033F0002F2D2F7161E070E080E090E004C0660F37
:10340000771F881F991F2A95D2F740907402509019
:10341000750260907602709077029FCFF5E0FA1502
:1034200008F40FCEE5CF8F2D8F71DD2009F4A8CFE2
:103430000E94801206CE8F2D8F71DD20C9F3A0CFA0
:1034400060E070E0CB01DD2009F46BCF2F2D2F71F0
:1034500061E070E080E090E004C0660F771F881F95
:10346000991F2A95D2F75DCF81E00E94681281E012
:103470008A1508F0E6CD82E00E946812E2CDAA200B
:1034800059F0893309F06FCE9FEFEDEEF2E09150E5
:10349000E040F040E1F765CE8F2D8F7171CFF0E104
:1034A000EF16FFE5FF0609F42DCB21E1E2162FE52B
:1034B000F20609F431CB83EFE8168CE5F80609F43F
:1034C00095CB08F02BCBF8EDEF16FCE5FF0609F4E1
:1034D00089CB29EDE2162CE5F20609F493CB37ED02
:1034E000E3163CE5F30609F02ACB26E241EE61EE55
:1034F000C8010E94C7130DCA30E1E3163FE5F30689
:1035000009F406CB81E1E8168FE5F806A1F682E022
:1035100000CB85E0DE01119601900D928A95E1F7CE
:10352000F801228189819A812111CEC90E94070563
:10353000F82ED2C9F6E1EF16FCE5FF0609F0F4CC4F
:1035400080913D0181116BCC89E20E94E10462CC43
:103550008272F701E25CFC45E431F10508F0D9CC58
:10356000E557FA4D0C9433241F93CF93DF9380914A
:103570004401807FA9F480914101882389F08091E2
:103580007601D091450160913F0170914001A09179
:103590004201B0914301C62FC72316E0D81304C0DF
:1035A000DF91CF911F91089590E0109711F0CF3FD8
:1035B00019F401968770F2CF189F9001199F300D72
:1035C0001124F901EA5BFE4F41814713F2CF40819C
:1035D0004613EFCF42814111ECCF438154814A1B06
:1035E0005B0B483C510528F7809144018F70806146
:1035F00080934401F901E55BFE4F80818F7080610B
:1036000080838FE391E00E942B14DF91CF911F9173
:103610000C945C05AF92BF92CF92DF92EF92FF9233
:103620000F931F93CF93DF93CDB7DEB761970FB69C
:10363000F894DEBF0FBECDBF8C0185E0F801DE013E
:103640001D9601900D928A95E1F7F8018081918194
:10365000E2802FE3A22E21E0B22E60914201709110
:1036600043016115710509F43EC130913F0140915C
:103670004001232F24232F3F09F435C1C380D48078
:10368000F0904101F601E61BF70BFF2009F4FBC0A7
:1036900020914401522F507FE83CF10508F0BBC057
:1036A000511178C0FE2C491321C038131FC0E110FE
:1036B0001DC02F70206120934401C5010E942B146E
:1036C00080914401F80185838F2D61960FB6F8949F
:1036D000DEBF0FBECDBFDF91CF911F910F91FF9045
:1036E000EF90DF90CF90BF90AF900895CD2829F054
:1036F000282F29232F3F09F014C120E0F22FF17069
:10370000DF2E20FF3DC0209176014091450156E01B
:10371000241315C08D879E878D859E850E94E40B9E
:10372000292F22952F702230F8F0243020F59F7039
:10373000F9F0F8019581907FD9F4D12C1FC030E0C9
:10374000529FF001539FF00D1124EA5BFE4F6181FF
:10375000961306C06081861303C06281E61210C012
:103760002F5F3F4F2770D4CF9F7011F0882329F32C
:10377000805E883010F3C8010E942B14FD2CA4CF6A
:10378000EE2009F4A1CF809144018160809344012F
:10379000F12C9ACF491312C0381310C0E1100EC09B
:1037A000F8012583C8010E942B1486E0F801AFE3DD
:1037B000B1E001900D928A95E1F786CF8D879E87C3
:1037C0008D859E850E94EE0B882309F1EE20F9F08D
:1037D00080914401803270F020913F01309140018E
:1037E00038872F831986DB86CA868C87CE01079699
:1037F0000E942B1486E0F801AFE3B1E001900D9236
:103800008A95E1F70E94B41AFF24F3945DCFC801B2
:103810000E942B14F9CF51110AC08FE391E00E944E
:103820002B1486E0F50111928A95E9F7B1CF49137F
:103830000FC038130DC0E1100BC0F8012583C8017B
:103840000E942B1486E0F50111928A95E9F73CCF8E
:103850008D879E878D859E850E94EE0B8823B9F209
:10386000EE20A9F280914401803220F220913F01A4
:10387000309140013A8329831B82DD82CC828E8382
:10388000CE010196B5CFE83CF105E0F6FE2CEE2026
:1038900009F4BDCF491316C0381314C080914401F8
:1038A00080FD83CF982F907F09F47FCFF801858327
:1038B000903F09F477CF982F907F905F8F70892B7E
:1038C000858370CF8D879E878D859E850E94EE0BA8
:1038D000811190CF80914401816080934401C8019F
:1038E0000E942B14F1CEEE2009F491CF8D879E8794
:1038F0008D859E850E94EE0BF82E882309F487CFD4
:1039000086E0F801AFE3B1E001900D928A95E1F70E
:1039100080913F01909140010E94E40B0E94B41AF3
:10392000D3CE21E02E25EACE1F93CF93DF93CDB7E0
:10393000DEB767970FB6F894DEBF0FBECDBF342F4A
:103940004B8B252F5C8B6D8B7E8B8F8B8E899F890C
:103950006111109283011A8A198A3D872E876F8719
:10396000998B888B86E0FE013D96DE0117960190CB
:103970000D928A95E1F7CE0107960E940A1B8823D3
:1039800089F016E08091760190914501891349C034
:1039900067960FB6F894DEBF0FBECDBFDF91CF9113
:1039A0001F91089586E0FE013796DE011196019081
:1039B0000D928A95E1F78A859B85892B11F38F817A
:1039C000988589238F3FE9F22091450130E0C901B4
:1039D000019687709927409176014817190671F46E
:1039E0000E94AB12109245011092760186E0EFE33F
:1039F000F1E0DF011D928A95E9F7C3CF96E0929F2F
:103A0000D001939FB00D1124AA5BBE4FFE013196E9
:103A100001900D929A95E1F7809345010E945C0513
:103A2000B0CF819FC00111248A5B9E4F0E940A1B68
:103A3000882309F4ADCF8091760190E001968770DC
:103A40009927809376019ECF8F929F92AF92BF92DB
:103A5000CF92DF92EF92FF920F931F93CF93DF935A
:103A60000AED10E0D0E0C0E0B12CCC24C394D12CFE
:103A70002DE8E22E21E0F22ED8018D918D01F894EF
:103A8000E82FE295EF70F0E021A98F70A60102C047
:103A9000440F551F8A95E2F7CA01922F982B91ABDC
:103AA00092A98095892382AB789400C096010C2E50
:103AB00001C0220F0A94EAF7522F2095EAE8F1E0BC
:103AC0008DED882E80E0982EA12C4191D4013D915E
:103AD0004D01832F82958F7090E0DC01D0968C9100
:103AE00090E03F7002C0959587953A95E2F780FD8A
:103AF00040C0852F842B481739F0BF0161507109F0
:103B0000DB018C93AA24A394EE16FF06F1F6F801CC
:103B1000319780810E947207C23019F0E8E7EA9578
:103B2000F1F7BA282196C330D10509F0A5CFBB2003
:103B300019F181E08093EC000E945D119093EB00FD
:103B40008093EA008091EA009091EB000E949F042C
:103B50000697B0F080918A018093B20180918B0129
:103B60008093B30180918C018093B4011092EC009A
:103B700007C0822F8423BFCF8091EC008111E2CF58
:103B80008B2DDF91CF911F910F91FF90EF90DF90E0
:103B9000CF90BF90AF909F908F900895CDB7DEB734
:103BA00060970FB6F894DEBF0FBECDBF0E945D11C7
:103BB0007C0184B7806884BF84B7806884BF8DE946
:103BC00094E09093E1008093E00085B7886085BF22
:103BD0008BB780688BBF8BE4809384028093B9029B
:103BE000809390028AE5809383028093B802809349
:103BF0008F028B9A80E0815009F04BC08B987894AB
:103C00008BE083BF8BEB8CBF82E089BF80E60E9494
:103C1000720781E60E94720782E60E94720780E9BD
:103C20000E94720781E90E94720782E90E9472076E
:103C300010928A011092B20110928B011092B3017E
:103C400010928C011092B4010E94241D8FE295E71E
:103C50000197F1F700C000000E94241D8091B2017D
:103C600080FF1FC06FEF82E290E00E94CC246FEFD4
:103C700083E290E00E94CC246FEF84E290E00E9407
:103C8000CC246FEF7FEF90E080E00E94E9240E9457
:103C9000750CA895E7EBFBE03197F1F700C0000049
:103CA000AACF90E080E00E94C6248B3E9E4F11F088
:103CB0000E948E0C82E290E00E94B824813209F0CA
:103CC000ACC483E290E00E94B824843009F0A5C41B
:103CD00084E290E00E94B824803209F09EC490E013
:103CE00080E00E94C6248B3E9E4F11F00E948E0CF5
:103CF00082E090E00E94B8248093A7010E94D70937
:103D000090938E0180938D0183E090E00E94B8240F
:103D1000682F70E090E080E00E94A11280918F01F6
:103D2000811136C090E080E00E94C6248B3E9E4FF9
:103D300021F00E948E0C0E942C0D88E090E00E94E1
:103D4000C0246093AD017093AE018093AF01909356
:103D5000B0016E7F71F40E942C0D88E090E00E940B
:103D6000C0246093AD017093AE018093AF01909336
:103D7000B0010E94B8051092AC018091AD0180FFA6
:103D800004C060E086950E947F1181E080938F01DE
:103D900082E790E090939101809390013FEB44ED96
:103DA00081E0315040408040E1F700C0000054E520
:103DB000C52E53E0D52E80919E021091B901882323
:103DC00009F449C010929E020E945D117C011123EA
:103DD000B9F01092B9010E94AB120E94A70510928F
:103DE000930180919201882349F08091AD01816017
:103DF0008093AD0160E086950E947F110E94691159
:103E00008091B9018823A1F10E945B0D0E94241DBD
:103E10008091B2019091B301892B9091B401892BCB
:103E200051F2F89421B3939A822F8C6081BB92B3A4
:103E30003CE0932792BB9FE5EAEEF0E09150E04032
:103E4000F040E1F700C0000082B3832782BB21BBB2
:103E500093987894B0CF1111D3CFC7010E949F04DB
:103E6000069770F281E08093B9010E945B0DC8CF84
:103E70000E94CC0780916902882309F455C1809182
:103E8000830284FF51C10E94241D882359F08FB7FB
:103E9000F8944091B5015091B6016091B7017091CD
:103EA000B8018FBFA2EBB1E0E8EAF1E010E000E07A
:103EB000202F9D918191891709F459C18927382FA5
:103EC0003170B32E80FD4DC181FD4DC182FF4FC1C8
:103ED00082E044E0B42E8F8328879B2181E009F49F
:103EE00080E089870E945D118160782F9B878A8797
:103EF0004F81588569858B850E94941CF801E8558F
:103F0000FE4F8081B826B0828091AC018823D1F128
:103F10008091AB01E091AD01E695E81BE09396013D
:103F2000823009F03BC1F0E0EE59FC4FE4910E2FD6
:103F300010E02EE3A22E20E1B22E8091970188237B
:103F400061F0109297010E945D119093950180930A
:103F5000940110929901109298010E945D11E091D4
:103F60009401F09195018E1B9F0B8F3F9F4750F45A
:103F7000E00FF11FF0939501E093940184E991E043
:103F8000F501099586E0E0EAF1E0DE011196019085
:103F90000D928A95E1F7B090A201A090A301109133
:103FA000A4010091A5011092A2011092A301109208
:103FB000A4011092A5018B2D8A2909F448C0809193
:103FC0009E0190919F010E949F049C0190919D01F0
:103FD000992309F44DC323333105C8F19F3F19F0EC
:103FE0009F5F90939D01BB2059F00E94F8069FEFC0
:103FF0001B140CF491E0899F802D11248093A20161
:10400000AA2059F00E94F8069FEF1A140CF491E0D0
:10401000899F802D11248093A3013091A201332325
:10402000B1F02091A301222391F045EB3403C001AC
:104030001124992309F41DC19093A20145EB240397
:1040400090011124332309F418C13093A301812F67
:10405000802B09F448C080919B0190919C010E94A3
:104060009F049C0190919A01992309F4FCC2253682
:104070003105C8F19F3F19F09F5F90939A0111237A
:1040800059F00E94D6069FEF11160CF491E0899F1B
:10409000802D11248093A401002359F00E94D6069C
:1040A0009FEF10160CF491E0899F802D11248093CE
:1040B000A5013091A4013323B1F02091A501222361
:1040C00091F045EB3403C0011124992309F4D9C0C0
:1040D0009093A40145EB240390011124332309F4A8
:1040E000D4C03093A5018091A2019091A301892BA6
:1040F0009091A401892B9091A501892B11F00E9428
:10410000DB1186E0FE013196A0EAB1E001900D924C
:104110008A95E1F70E94A7059091A601891721F0E1
:104120000E94A7058093A6010E947C090E94CC07EB
:1041300080916902882309F43ECE8091B80284FF01
:104140003ACE80915F02803209F035CEE0913F0295
:10415000E150E33108F0E4C0F0E0E156FA4D0C9490
:10416000332480E0B8CE81E032E0B32EB4CE0F5FCE
:104170001F4F0330110509F09BCE8FEF8C878D8781
:104180001E860E945D118160782F988B8F874C85E9
:104190005D856E8588890E94941CB6CE863059F460
:1041A000F0E0E15AFC4FE4910E2F10E092E5A92EC9
:1041B00090E1B92EC2CE893061F4E695F0E0E45A80
:1041C000FC4FE4910E2F10E08CE2A82E8EE0B82E6A
:1041D000B4CE8F3061F4E695F0E0E75AFC4FE491FD
:1041E0000E2F10E0B6E5AB2EBEE0BB2EA6CE85317D
:1041F00059F4F0E0EA5AFC4FE4910E2F10E0A4ECE1
:10420000AA2EAEE0BA2E99CE08E210E072E1A72EF7
:104210007FE0B72E883109F490CE833241F4F60165
:1042200005911491F5EEAF2EFFE0BF2E86CE04EF80
:1042300011E06BE9A62E6FE0B62E843209F47DCE34
:1042400000ED17E05CE9A52E54E0B52E853209F0AB
:1042500074CE8E2F63E00E94F123E92FF0E0EF5A35
:10426000FC4FE4910E2F10E0EDE7AE2EEDE0BE2EF8
:1042700064CE81E08093A201E1CE81E08093A3012E
:10428000E6CE81E08093A40125CF81E08093A50153
:104290002ACF1092400289E0809341022BC0809186
:1042A0004002823009F4D2C18330C1F08130C1F5BF
:1042B0002FB7F8946091B5017091B6018091B70164
:1042C0009091B8012FBF0E943924609341027093EE
:1042D000420280934302909344020CC08091B20149
:1042E000809341028091B301809342028091B40196
:1042F000809343020FE312E06FC18091400282304D
:1043000079F4609141027091420280914302909150
:1043100044020E94392485E290E00E94CC24EACF36
:104320008FEF80933F02E6CF4091420260914102BD
:10433000809140020E94E509982789279827909349
:10434000440280934302D6CFA0904302B09044022F
:10435000BA24AB24BA24809140020091410296E035
:10436000099F80011124E2E18E9F000D111D11248F
:104370008091420290E0880F991F080F191F6B2D42
:10438000C80186960E94CC246A2DC8018796C5CFA5
:104390000E94120CAFCF809140028138D9F068F4AE
:1043A000803809F0A7CF20E0409141026091AF0131
:1043B0008091AE010E9462109DCF823879F18338DE
:1043C00009F098CF20E04091B001609142028091C5
:1043D0004102F0CF60E0809141020E947F119091F4
:1043E00041028091AD01911111C08E7F8093AD018A
:1043F0001092AC01FFEB24ED31E0F1502040304051
:10440000E1F700C000000E943B0D74CF81608093F3
:10441000AD0160E086950E947F116CCF80914102D2
:104420008093B10167CF809140028138A9F030F4C8
:10443000803809F05FCF8091B0012ECF8238A1F093
:10444000833809F057CF8091AE018093410280916B
:10445000AF01809342024ECF8091AD0180FF02C038
:1044600086951ACF80E018CF8091B10115CF609169
:10447000AD017091AE018091AF019091B0010E94A9
:10448000F80C38CF80E18093400234CF83E08093F2
:10449000400282E901CF00914002109141021027B1
:1044A000012710273FE3832E32E0932EA090420293
:1044B000B12CC501815C9D4F5C01C80182599F4FA1
:1044C0008A149B0409F416CF0239E3E01E0750F466
:1044D0000E94B824F40184830F5F1F4FFFEF8F1AEF
:1044E0009F0AEBCFF4011482F7CF009140021091A4
:1044F00041021027012710272FE3822E22E0922E5F
:10450000A0904202A00EB12EB11CC80182599F4F4B
:104510000A151B0509F4EECE023923E0120720F438
:10452000F40164810E94CC24FFEF8F1A9F0A0F5F71
:104530001F4FEBCF0E94650CDDCE84E0A4CF00912D
:104540004002109141021027012710279FE3A92E56
:1045500092E0B92E80904202912C9401215C3D4F53
:104560004901C80186968A149B0409F4C3CE083415
:10457000110550F40E94B824F50184830F5F1F4F8A
:10458000FFEFAF1ABF0AEDCFF5011482F7CF00910C
:104590004002109141021027012710278FE3882E37
:1045A00082E0982EA0904202A00EB12EB11CC8014C
:1045B0008696A016B10609F49DCE0834110520F4A4
:1045C000F40164810E94CC24FFEF8F1A9F0A0F5FD1
:1045D0001F4FEDCF0E94CC0780918F0284FFFACF4E
:1045E0004FE852E068E0C8010E941609085F1F4FBB
:1045F00022E00F35120781F780918F0284FF0AC0F5
:104600004FE852E060E090E080E00E9416091092CE
:104610005F02D1CB0E94CC07EFCF60E085E290E053
:104620000E94CC240E94120C0E94650C61E282E27E
:1046300090E00E94CC2464E083E290E00E94CC24CD
:1046400060E284E290E00E94CC2449CB85E290E0D5
:104650000E94B8241092410210924202109243022A
:104660008093440247CE2D32314008F005CD3BCD3A
:104670002D32314008F0B4CCEACC11B887E080B9D3
:1046800085B3836085BB86B7846086BF86B781604B
:1046900086BF86B7806486BF0895EF92FF920F931E
:1046A0001F93CF93DF93182FEB0116BE84EA86BFCA
:1046B0000E945D117C0106B607FE21C081B1887F92
:1046C000883021F081B1887F8031B9F513B984E851
:1046D00086BF0E945D118C0106B607FE23C021B182
:1046E000287F90E080E02831B1F081E090E0203434
:1046F00011F490E080E09195819591090CC0CF3F35
:10470000DC07C9F20E945D118E199F098C179D0765
:1047100090F28EEF9FEFDF91CF911F910F91FF905D
:10472000EF900895CF3FDC07B9F20E945D11801B26
:10473000910B8C179D0780F2ECCF8FEF9FEFEBCFA3
:104740000F931F93CF93DF93EB0183B984E886BF68
:104750000E945D118C0106B607FE10C021B1287FB2
:1047600081E090E0283211F490E080E0919581950D
:104770009109DF91CF911F910F910895CF3FDC07F1
:1047800051F30E945D11801B910B8C179D0718F34C
:104790008EEF9FEFEECFCF92DF92EF92FF920F93CB
:1047A0001F93CF93DF936B018A017901B9010E94B6
:1047B0004D23E6010C0D1D1DC017D10759F424E946
:1047C00026BFDF91CF911F910F91FF90EF90DF9067
:1047D000CF90089597FDF3CFB70189910E94A02350
:1047E000EBCF991B79E004C0991F961708F0961B30
:1047F000881F7A95C9F78095089587FB082E0626AD
:1048000087FD819567FD61950E94F1230EF49195D6
:1048100007FC81950895AA1BBB1B51E107C0AA1F85
:10482000BB1FA617B70710F0A61BB70B881F991F51
:104830005A95A9F780959095BC01CD01089597FBF5
:10484000072E16F4009407D077FD09D00E940B24A0
:1048500007FC05D03EF4909581959F4F0895709583
:1048600061957F4F0895EE0FFF1F0590F491E02DA5
:104870000994692796276927782787277827089535
:104880000E946025332312F48A1B9B0B0C944A244C
:104890000E946025B7FF0895821B930B08958F92A5
:1048A0009F92AF92BF92CF92DF92EF92FF92CF93FF
:1048B000DF93EC01688179818A819B8161157105A3
:1048C0008105910521F464E279ED8BE597E02DE116
:1048D00033EF41E050E00E940C2549015A019B0151
:1048E000AC01A7EAB1E40E942B256B017C01ACEE80
:1048F000B4EFA50194010E943925DC01CB018C0D98
:104900009D1DAE1DBF1DB7FF03C00197A109B04893
:1049100088839983AA83BB839F77DF91CF91FF9090
:10492000EF90DF90CF90BF90AF909F908F900895C1
:104930000E944F24089580E690E00E944F2408953D
:10494000B0E0A0E08093600090936100A0936200CB
:10495000B09363000895FC014150504030F0019045
:104960000616D1F73197CF01089588279927089522
:10497000E199FECF9FBB8EBBE09A99278DB3089536
:10498000A6E1B0E044E050E00C94FE24A8E1B0E0E1
:1049900042E050E00C94FE24262FE199FECF9FBB0D
:1049A0008EBBE09A01970DB2021631F02DBB0FB607
:1049B000F894E29AE19A0FBE08950396272F0E9479
:1049C000CD240E94CC24252F0E94CD24242F0C948A
:1049D000CD240196272F0E94CD240C94CC24262F81
:1049E000E199FECF9FBB8EBB2DBB0FB6F894E29A28
:1049F000E19A0FBE01960895DC01CB01FC01E1991B
:104A0000FECF06C0FFBBEEBBE09A31960DB20D9211
:104A100041505040B8F70895052E97FB1EF40094BE
:104A20000E94232557FD07D00E943E2507FC03D096
:104A30004EF40C94232550954095309521953F4F89
:104A40004F4F5F4F089590958095709561957F4F7A
:104A50008F4F9F4F08950E946025A59F900DB49F92
:104A6000900DA49F800D911D11240895B7FF0C9403
:104A70002B250E942B25821B930B0895A1E21A2E51
:104A8000AA1BBB1BFD010DC0AA1FBB1FEE1FFF1FF2
:104A9000A217B307E407F50720F0A21BB30BE40B42
:104AA000F50B661F771F881F991F1A9469F7609589
:104AB0007095809590959B01AC01BD01CF01089543
:104AC000A29FB001B39FC001A39F700D811D11244F
:104AD000911DB29F700D811D1124911D0895F894B0
:104AE000FFCFFD0BFD0B060C060C080C060C060C8C
:104AF000060CFD0BFD0B0D0C060C060C0D0CEA173D
:104B0000EA175D185D18B718D11821182118DC189C
:104B1000B219C319C319111738173F17441749178A
:104B20004E17531758175D17621767176C176F17D3
:104B3000741777177A177D178017831786174921FF
:104B40004F217D219421A421C821CB21132237227A
:104B500090219021422246224B2275229A229D22A8
:044B60009F22C722A7
:104B64000100000001191A1B1C1D1E1F2021220117
:104B740002019904AB093F0978097409FF5A00013D
:104B8400020202020606060909090909090F0F0FA4
:104B94000F0F0F15151518191919191919191919AC
:104BA400192324252525252525818283E200E90072
:104BB400EA00B500B600B700CD008301CC008A013D
:104BC40092019401210223022402250226022702D3
:104BD4002A02B300B4006F00700060616290919289
:00000001FF
